:020000040800F2
:10000000D006002065010008F9100008A10F0008C3
:1000100000000000000000000000000000000000E0
:10002000000000000000000000000000FD100008BB
:100030000000000000000000FB1000080111000893
:100040009501000895010008950100089501000838
:100050009501000895010008830600088D06000838
:100060009501000895010008950100089501000818
:100070009501000895010008950100089501000808
:100080009501000800000000000000009501000834
:100090000000000095010008950100089501000886
:1000A0000000000095010008950100089501000876
:1000B0009501000800000000950100089501000866
:1000C00000F002F800F03EF80CA030C80838241800
:1000D0002D18A246671EAB4654465D46AC4201D180
:1000E00000F030F87E460F3E0FCCB6460126334274
:1000F00000D0FB1AA246AB4633431847E414000075
:1001000004150000103A02D378C878C1FAD8520713
:1001100001D330C830C101D504680C6070470000BD
:100120000023002400250026103A01D378C1FBD813
:10013000520700D330C100D50B6070471FB51FBDFB
:1001400010B510BD00F099F91146FFF7F7FF01F067
:1001500059F900F0B1F903B4FFF7F2FF03BC00F066
:10016000B7F900000F4880F308880F480168090EAE
:100170000E4A914205D10E480E4901600E480F49C2
:1001800001600F4880470F480047FEE7FEE7FEE7A3
:10019000FEE7FEE7FEE700000B480C490C4A0D4B5A
:1001A00070470000D0060020040000001F0000007F
:1001B0001810024001000000000001400000000093
:1001C000F3110008C1000008D0000020D006002074
:1001D000D0020020D0020020FEB5054610460C4695
:1001E000184373D0AE468C460020AD1A01469C41A0
:1001F00067D36646002701243D46B61A9D4102D3C7
:1002000013463A462124654676462F04360C3E4373
:100210002D0CB61A9D4104D3150C1B042B4312045C
:100220001034654676462F06360A3E432D0AB61A26
:100230009D4104D3150E1B022B4312020834654660
:1002400076462F0736093E432D09B61A9D4104D341
:10025000150F1B012B431201241D65467646AF077F
:10026000B6083E43AD08B61A9D4104D3950F9B00D6
:100270002B439200A41C65467646EF0776083E4362
:100280006D08B61A9D411AD392185B41641C16E0A2
:100290000018764665464941B71A9D410191009084
:1002A00009D36046B11A98418E4684460098019958
:1002B0000025401C6941DD0752082A435B08641E83
:1002C000E6D57246634603B0F0BDFFE70020014665
:1002D000C046C0462A462346F5E701E004C0091F90
:1002E0000429FBD28B0701D50280801CC90700D0EE
:1002F0000270704700290BD0C30702D00270401C67
:10030000491E022904D3830702D50280801C891E5E
:10031000E3E70022EEE70022DFE7002203098B4239
:100320002CD3030A8B4211D300239C464EE0034694
:100330000B433CD4002243088B4231D303098B4248
:100340001CD3030A8B4201D394463FE0C3098B427E
:1003500001D3CB01C01A524183098B4201D38B01D7
:10036000C01A524143098B4201D34B01C01A52417A
:1003700003098B4201D30B01C01A5241C3088B42BF
:1003800001D3CB00C01A524183088B4201D38B00AA
:10039000C01A524143088B4201D34B00C01A52414C
:1003A000411A00D201465241104670475DE0CA0F23
:1003B00000D04942031000D34042534000229C46E3
:1003C00003098B422DD3030A8B4212D3FC228901ED
:1003D00012BA030A8B420CD3890192118B4208D3C3
:1003E000890192118B4204D389013AD0921100E025
:1003F0008909C3098B4201D3CB01C01A5241830939
:100400008B4201D38B01C01A524143098B4201D365
:100410004B01C01A524103098B4201D30B01C01A90
:100420005241C3088B4201D3CB00C01A524183080A
:100430008B4201D38B00C01A5241D9D243088B4260
:1004400001D34B00C01A5241411A00D20146634603
:1004500052415B10104601D34042002B00D5494267
:10046000704763465B1000D3404201B50020C04690
:10047000C04602BD704770477047754600F024F8CB
:10048000AE46050069465346C008C000854618B010
:1004900020B5FFF781FE60BC00274908B64600265C
:1004A000C0C5C0C5C0C5C0C5C0C5C0C5C0C5C0C524
:1004B000403D49008D46704710B50446C046C046D1
:1004C0002046FFF748FE10BD004870476C00002032
:1004D00001491820ABBEFEE726000200704700006D
:1004E00003480168002902D00168491E0160704775
:1004F0003C0000200249086008680028FCD17047D1
:100500003C00002010B51B4C7D21221FC900002893
:1005100012D0012819D0022821D003280BD1642140
:100520001088FFF7FAFE08460A21FFF7F6FE605C26
:10053000012100F05FFE10BD10888842FBD31088B7
:10054000FFF7EBFE205C0821F3E71088FFF7E5FEDC
:1005500008466421FFF7E1FE205C0421E9E76421FD
:100560001088FFF7DAFE08460A21FFF7D6FE205C66
:100570000221DEE74C00002010B51B4C7D21221F1C
:10058000C900002812D0012819D0022821D0032840
:100590000BD164215088FFF7C0FE08460A21FFF7FF
:1005A000BCFE605C012100F06FFE10BD50888842E7
:1005B000FBD35088FFF7B1FE205C0821F3E7508899
:1005C000FFF7ABFE08466421FFF7A7FE205C04217D
:1005D000E9E764215088FFF7A0FE08460A21FFF7EB
:1005E0009CFE205C0221DEE74C000020014A1080C6
:1005F000518070474800002070B50D460446002326
:100600001A460221902000F023F8EBB22A0A0121B9
:10061000902000F01DF8E3B2220A0021902000F0A3
:1006200017F870BD70B5094D0424600040194038BA
:10063000018F008FCBB2020A2146902000F008F80B
:10064000641CE4B2162CF0D970BD00001400002028
:10065000F8B51D4616460F46044600F0A2FC20469B
:1006600000F058FE384600F055FE304600F052FECD
:10067000284600F04FFE00F0AEFC0120FFF73AFFE5
:10068000F8BD10B5042000F027F810BD10B51020FB
:1006900000F022F810BD72B6FEE7000070B501252B
:1006A0000C4C042810D010280DD1A07800280AD1B5
:1006B00060780C21401CC0B2FFF72FFE6170FF2054
:1006C000A5702D30E08070BD7D202570C000A08019
:1006D00070BD00004000002010B504494A69024284
:1006E00002D04861FFF7DAFF10BD000000040140AE
:1006F000F8B5002303240125B5E02E469E40B446FC
:1007000032407CD00E79B607B60F012E01D0022EF2
:1007100017D186682746B6465E00B74000967646F3
:10072000BE43B646CF68009EB740764637438760E3
:1007300046686746BE430F79FF06FF0F9F40374369
:1007400047600E79F643B6070ED0C6682746B44612
:100750005E00B646B7406646BE43B4468F687646EE
:10076000B74066463743C7600E79B607B60F022E0C
:1007700014D1DE08B60036180096366A5F07B44614
:10078000FE0E0F27B646B7406646BE43B4460F6915
:100790007646B74066463743009E3762066827466E
:1007A000B4465E00B646B7406646BE430F79B446CF
:1007B000BF07BF0F7646B7406646374307604E68AF
:1007C000B603B60F4ED02B4FBE692E43BE61BE6935
:1007D0009F08F607F60F284EBF00BE190096B668B0
:1007E0000F27B4469E07360FB646B7406646BE434F
:1007F0000927FF06B446B84202D100270BE031E0DA
:100800001E4FB84201D1012705E01D4FB84201D16A
:10081000022700E005277646B74066463743009E2C
:10082000B760184EB6684F689643FF0200D516436E
:10083000144FBE60FE684F689643BF0200D5164352
:10084000104FFE607E684F689643BF0300D5164385
:100850000C4F7E603E684F689643FF0300D51643F9
:10086000084A16605B1C0A681646DE4000D044E762
:10087000F8BD0000001002400000014000040048E4
:1008800000080048000401400069084000D0012031
:100890007047426913460B401B0491430B4383612D
:1008A0007047002A01D08161704781627047000063
:1008B00001488068704700000400002070B5040003
:1008C0000FD021681548086021681548086003CCDE
:1008D00041602068083C21688860FFF7E9FF054611
:1008E0000CE0012070BDFFF7E3FF401B272805D96E
:1008F0002068C068400701D0032070BD2068C06830
:100900004007F0D120680269E1688A4201D00161A4
:1009100001E004490160002070BD0000CCCC000063
:1009200055550000AAAA0000006802490160002095
:1009300070470000AAAA000002488168027889185E
:10094000816070470400002010B50648016810223D
:1009500011430160002000F007F800F027F80020A4
:1009600010BD00000020024070B504460D4D7D20F2
:100970002978C000FFF7D1FC01460B480068FFF75B
:10098000CCFC00F0F5FA002809D1042C07D2002293
:100990002146401E00F02AF800206C6070BD012046
:1009A00070BD0000040000201000002008B50848B9
:1009B0008169012211438161816911400091C269FD
:1009C00001040A43C261C0690840009008BD0000EC
:1009D00000100240002805DBC106C90E0120884036
:1009E000014908607047000000E100E010B500F028
:1009F000E7FC10BDF8B50F4606005ED03C4D2868F8
:100A0000C007C00FB84209D22868400840003843E8
:100A100028602868C007C00FB8424ED13068354CF6
:100A200081070CD5400704D56068072109020843F7
:100A300060606068F0218843B16808436060307886
:100A4000C0072BD07068012810D0022810D00328CE
:100A500011D02168890700292FDA61688908890087
:100A600001436160FFF724FF009010E0216803E07C
:100A700021688901EFE7616B8903ECE7FFF718FF55
:100A80000099411A1C48814201D90320F8BD6068D1
:100A90000C210840716889008842EFD12868C0079E
:100AA000C00FB8420BD9286840084000384328607E
:100AB0002868C007C00FB84201D00120F8BD3078C7
:100AC000400706D56068072109028843F16808439A
:100AD000606000F017F86168084A0906090F515C68
:100AE000C840074908600020FFF73EFF0020F8BD1E
:100AF000002002400010024088130000D0150008BA
:100B00001000002070B5154A51680C200B460340B8
:100B10001348042B05D0134D082B03D00C2B00D108
:100B2000284670BD8B02104C1B0FE45CD26A0E4B42
:100B30001207120F1033C9039A5C890F022901D0E2
:100B4000032901D0002301E0002328460021FFF7FC
:100B500043FB214600F00FFC70BD00000010024076
:100B600000127A00006CDC02B0150008FEB504002B
:100B700070D02078F94EFA4DC00748D06868000759
:100B8000800F01281FD068680007800F022804D159
:100B90006868C003800F022815D06168012919D048
:100BA00001208004002901D0052917D02968B1430C
:100BB0002960296881432960606800281BD0FFF7FD
:100BC00077FE074613E02868800320D56068002878
:100BD000CED01CE0286830432860EDE72968014347
:100BE0002960F7E7FFF764FEC01B642870D8286807
:100BF0008003F7D50BE0FFF75BFE074604E0FFF745
:100C000057FEC01B6428F1D828688003F7D42078E9
:100C100080073FD568680007800F14D06868000718
:100C2000800F022804D16868C003800F01280AD011
:100C3000E068002828681ED0012108432860FFF7DB
:100C400037FE07460CE0286880070CD5E0680128CD
:100C500000D108E080E1FFF72BFEC01B0228C5D8B9
:100C600028688007F7D52868F82188432169C900DA
:100C7000084328600EE0400840002860FFF718FE97
:100C8000074604E0FFF714FEC01B0228AED8286810
:100C90008007F7D42078000723D5E0690028686A28
:100CA0000FD0012108436862FFF702FE074604E007
:100CB000FFF7FEFDC01B022898D8686A8007F7D5A9
:100CC0000FE0400840006862FFF7F2FD074605E0CC
:100CD000C3E0FFF7EDFDC01B022887D8686A8007D4
:100CE000F7D4207804274007002861DA002001901B
:100CF000E869C00008D4E969B8060143E961E96917
:100D0000014001200091019096480168C90511D465
:100D10000168821511430160FFF7CAFD009005E0EC
:100D2000FFF7C6FD0099401A642898D88D480068DE
:100D3000C005F5D5A06801280AD0002801D00528F3
:100D400011D0286A400840002862286AB84302E0AF
:100D5000286A012108432862A068002812D0FFF702
:100D6000A7FD00900AE0286A38432862F0E7FFF701
:100D70009FFD0099411A7C4881426ED8286A8007FD
:100D8000F5D50DE0FFF794FD009006E0FFF790FD2C
:100D90000099411A744881425FD8286A8007F5D4C7
:100DA0000198002804D0E969012000078143E96126
:100DB0002078C00635D5606901280CD0401D686BCD
:100DC00024D038436863686B400840006863FFF7CD
:100DD0006FFD074622E0686B38436863686B01214A
:100DE00008436863FFF764FD074604E0FFF760FD12
:100DF000C01B022831D8686B8007F7D5686BF821D3
:100E00008843A169C900084368630AE0B84368637E
:100E1000F4E7FFF74DFDC01B02281ED8686B800762
:100E2000F7D42078800637D568680007800F03283C
:100E300014D068680007800F022804D16868C003D6
:100E4000800F03280AD0206A0028686B16D0304330
:100E50006863FFF72DFD06460CE062E0686B8003D7
:100E60001AD5206A012877D116E0FFF721FD801BF3
:100E7000022856D8686B8003F7D50DE0B04368634D
:100E8000FFF716FD064604E0FFF712FD801B02285F
:100E900047D8686B8003F7D4606A002866D0696819
:100EA0000907890F022942D0012636060228286840
:100EB00005D0B0432860FFF7FBFC044633E0B043A5
:100EC0002860FFF7F5FC074604E0FFF7F1FCC01BC4
:100ED000022826D828688001F7D4E86A216B000927
:100EE00000010843E862A16AE06A084369687B225E
:100EF000D203914308436860286830432860FFF7B5
:100F0000D7FC044604E0FFF7D3FC001B022808D8F6
:100F100028688001F7D529E0FFF7CAFC001B0228EA
:100F200001D90320FEBD28688001F5D41EE0012808
:100F3000F8D06868E96A0322D203A36A02409A42A1
:100F40000AD10907226B090F914205D10F218904AB
:100F50000840E16A884209D00120FEBD000001007E
:100F60000010024000700040881300000020F4E7E9
:100F7000094910B5401E884201D9012010BD074C17
:100F800060610321081F00F01BFA0020A061072008
:100F90002061002010BD0000FFFFFF0000E000E026
:100FA000FEE770B5012209255402ED0621462846C8
:100FB000FFF777FC0122960231462846FFF771FCC5
:100FC000002231462846FFF76CFC002221462846C5
:100FD000FFF767FC70BD70B5012409256402ED06BA
:100FE000002221462846FFF75CFC660000223146BD
:100FF0002846FFF756FC012221462846FFF751FC00
:10100000012231462846FFF74CFC70BDF0B587B091
:1010100014216846FFF77FF92948426901218905B3
:101020000A43426142690A400592426949110A43F2
:10103000426142690A400592426949000A4342619D
:101040004069204C08400926F606059000222146FA
:101050003046FFF726FC1C4F0022F8213846FFF7E8
:1010600020FC009400240125019502946946304635
:101070000394FFF73DFB1420009011200004019021
:10108000694602943046FFF733FBF8200090029443
:101090006946019503943846FFF72AFB0022022196
:1010A0000620FFF7A3FC0620FFF794FC0022012195
:1010B0000720FFF79BFC0720FFF78CFC07B0F0BD73
:1010C00000100240018700000004004810B50948E4
:1010D00007490160002141607D214901C1608160B3
:1010E000FFF7ECFB002801D0FFF7D5FA10BD000098
:1010F000003000405C000020FEE7704770470000B1
:1011000070B5FFF719FCFFF7EBF91E4C1E4D608818
:10111000401C60802888002801D0401E28801B4881
:101120000188002901D0491E01802078FFF7EAF9E3
:101130002078FFF721FA2078FF21401C8007800FDC
:10114000207060882D310026884203D366801048C5
:10115000FFF7EAFB288800280CD10E4C20780128E4
:1011600008D10925ED0604212846FFF78DFB01284B
:1011700001D0267070BD002201212846FFF791FBA7
:1011800070BD000000000020440000204600002048
:101190005C0000204000002030B591B0342168464A
:1011A000FFF7B9F800240F94092000900120109453
:1011B0000790019000040A9000010E9402250B9004
:1011C0000D9409950C946846FFF7D0FC002801D0D7
:1011D00072B6FEE707200D900F9401210E95109432
:1011E0000DA8FFF707FC002801D072B6FEE711B08A
:1011F00030BD7047F8B5234C0E46074600253846EB
:10120000A840000601D5012200E00022FF210920AC
:101210000131C006FFF745FB012280212046FFF780
:1012200040FB002280212046FFF73BFB6D1CEDB206
:10123000082DE4D300250927FF063046A840000604
:1012400001D5012200E00022FF2101313846FFF7DD
:1012500028FB012280212046FFF723FB002280216A
:101260002046FFF71EFB6D1CEDB2082DE5D30122D1
:1012700040212046FFF715FB002240212046FFF7C2
:1012800010FBF8BD00040048F8B5214C0E46074697
:1012900000253846A840000601D5012200E00022C2
:1012A00020212046FFF7FDFA012210212046FFF7FA
:1012B000F8FA002210212046FFF7F3FA6D1CEDB278
:1012C000082DE6D300253046A840000601D50122AE
:1012D00000E0002220212046FFF7E3FA012210213E
:1012E0002046FFF7DEFA002210212046FFF7D9FA48
:1012F0006D1CEDB2082DE6D3012208212046FFF730
:10130000D0FA002208212046FFF7CBFAF8BD0000F2
:1013100000040048F8B509270024FF060126054609
:101320007602280601D5012200E00022012189026F
:101330003846FFF7B6FA012231463846FFF7B1FAD0
:10134000002231463846FFF7ACFA6806641C050EE9
:10135000E4B2082CE5D3012291023846FFF7A1FA46
:10136000012231463846FFF79CFA002231463846C2
:10137000FFF797FAF8BDF8B5040C8BB2264682B297
:101380005E430D0C1046370C58433604801900217B
:10139000794116466E43370C36048019794126464A
:1013A0006E438919F8BD30B47446641E2578641CF8
:1013B000AB4200D21D46635D5B00E31830BC1847AA
:1013C0008307FF22DB0E9A408907090E9940002807
:1013D00008DB830809489B001B18186890430843E2
:1013E000186070470007000F0838830804489B0006
:1013F0001B18D86990430843D861704700E400E0A7
:1014000000ED00E0FFF7A0FAFFF7C6FEFFF7FEFDD4
:10141000FFF75CFE01220925D603ED06314628467A
:10142000FFF73FFA012211462846FFF73AFA7D20DE
:10143000C000FFF75FF8FF23602217219020FFF71D
:1014400007F9FFF7EFF8FF23312220219020FFF763
:10145000FFF847494748FFF7CFF8FF204649B63025
:10146000FFF7C4F8FF27454CB53731462846FFF74C
:1014700010FA6420FFF73EF820780028F5D04048A5
:1014800000880028F1D13F4800780300FFF78BFF68
:101490000C07101D252D353E464E575F671A3548FF
:1014A00039494F30FFF7A8F8FA21FF20B83007E09C
:1014B000304836493A38FFF79FF8FF219B3123E047
:1014C000FFF794F800202070CFE72A4830493B38D6
:1014D000FFF792F8FF21963116E026482D493B3858
:1014E000FFF78AF8FF2191310EE022482A493B3864
:1014F000FFF782F8FF218C3106E01E4827493B3870
:10150000FFF77AF8FF2187313846D9E7194824498F
:101510000930FFF771F81849B93125E0154821491C
:101520000930FFF769F81449B4311DE0114835213D
:1015300009020930FFF760F81921490114E00D484C
:1015400019490830FFF758F80B49AA310CE009484F
:1015500016490830FFF750F80749A53104E004495F
:101560000448FFF749F80449FF20B630A8E7000017
:1015700051C60000595200007102000042000020D4
:1015800046000020410000209F140000E5390000C3
:1015900027FC000069BE0000AB8000004E43000045
:1015A0007BB00000BE720000A2F70000E5B90000A9
:1015B00002030405060708090A0B0C0D0E0F101094
:1015C0000102030405060708090A0B0C0D0E0F1093
:1015D00000000000000000000102030406070809E3
:1015E00000160008000000205C0000000401000854
:1015F0005C1600085C000020740600002001000852
:1016000000000000010000000400000000000000D5
:1016100000127A000003040C40F100EDE017E0E056
:101620004385000766A0FFFFE0FFA0073C9E001F68
:10163000C7D10F20FF0100E0000300000000000000
:10164000000000000000000000000000C0F9A4B08D
:0C165000999282F880908883C6A1868E53
:04000005080000C12E
:00000001FF
